{"abi":[{"type":"function","name":"clone","inputs":[{"name":"_target","type":"address","internalType":"address"}],"outputs":[],"stateMutability":"nonpayable"},{"type":"function","name":"execute","inputs":[{"name":"_proposalId","type":"uint256","internalType":"uint256"}],"outputs":[],"stateMutability":"nonpayable"},{"type":"function","name":"fork","inputs":[{"name":"pid","type":"uint256","internalType":"uint256"},{"name":"_p","type":"tuple","internalType":"struct Types.ProposalArg","components":[{"name":"header","type":"tuple","internalType":"struct Schema.Header","components":[{"name":"id","type":"uint256","internalType":"uint256"},{"name":"currentScore","type":"uint256","internalType":"uint256"},{"name":"metadataURI","type":"bytes32","internalType":"bytes32"},{"name":"tagIds","type":"uint256[]","internalType":"uint256[]"}]},{"name":"cmd","type":"tuple","internalType":"struct Schema.Command","components":[{"name":"id","type":"uint256","internalType":"uint256"},{"name":"actions","type":"tuple[]","internalType":"struct Schema.Action[]","components":[{"name":"func","type":"string","internalType":"string"},{"name":"abiParams","type":"bytes","internalType":"bytes"}]},{"name":"currentScore","type":"uint256","internalType":"uint256"}]},{"name":"proposalMeta","type":"tuple","internalType":"struct Schema.ProposalMeta","components":[{"name":"currentScore","type":"uint256","internalType":"uint256"},{"name":"headerRank","type":"uint256[]","internalType":"uint256[]"},{"name":"cmdRank","type":"uint256[]","internalType":"uint256[]"},{"name":"nextHeaderTallyFrom","type":"uint256","internalType":"uint256"},{"name":"nextCmdTallyFrom","type":"uint256","internalType":"uint256"},{"name":"reps","type":"address[]","internalType":"address[]"},{"name":"nextRepId","type":"uint256","internalType":"uint256"},{"name":"createdAt","type":"uint256","internalType":"uint256"}]}]}],"outputs":[],"stateMutability":"nonpayable"},{"type":"function","name":"getConfigOverride","inputs":[{"name":"sig","type":"bytes4","internalType":"bytes4"}],"outputs":[{"name":"","type":"tuple","internalType":"struct Schema.ConfigOverride","components":[{"name":"quorumScore","type":"uint256","internalType":"uint256"}]}],"stateMutability":"view"},{"type":"function","name":"getMember","inputs":[{"name":"id","type":"uint256","internalType":"uint256"}],"outputs":[{"name":"","type":"tuple","internalType":"struct Schema.Member","components":[{"name":"id","type":"uint256","internalType":"uint256"},{"name":"addr","type":"address","internalType":"address"},{"name":"iconURI","type":"string","internalType":"string"},{"name":"iconVerifiedSignature","type":"bytes","internalType":"bytes"}]}],"stateMutability":"view"},{"type":"function","name":"getNextMemberId","inputs":[],"outputs":[{"name":"","type":"uint256","internalType":"uint256"}],"stateMutability":"view"},{"type":"function","name":"getNextProposalId","inputs":[],"outputs":[{"name":"","type":"uint256","internalType":"uint256"}],"stateMutability":"view"},{"type":"function","name":"getNextTextId","inputs":[],"outputs":[{"name":"","type":"uint256","internalType":"uint256"}],"stateMutability":"view"},{"type":"function","name":"getNextVRFId","inputs":[],"outputs":[{"name":"","type":"uint256","internalType":"uint256"}],"stateMutability":"view"},{"type":"function","name":"getProposal","inputs":[{"name":"id","type":"uint256","internalType":"uint256"}],"outputs":[{"name":"","type":"tuple","internalType":"struct Getter.ProposalInfo","components":[{"name":"proposalMeta","type":"tuple","internalType":"struct Schema.ProposalMeta","components":[{"name":"currentScore","type":"uint256","internalType":"uint256"},{"name":"headerRank","type":"uint256[]","internalType":"uint256[]"},{"name":"cmdRank","type":"uint256[]","internalType":"uint256[]"},{"name":"nextHeaderTallyFrom","type":"uint256","internalType":"uint256"},{"name":"nextCmdTallyFrom","type":"uint256","internalType":"uint256"},{"name":"reps","type":"address[]","internalType":"address[]"},{"name":"nextRepId","type":"uint256","internalType":"uint256"},{"name":"createdAt","type":"uint256","internalType":"uint256"}]},{"name":"headersLength","type":"uint256","internalType":"uint256"},{"name":"cmdsLength","type":"uint256","internalType":"uint256"}]}],"stateMutability":"view"},{"type":"function","name":"getProposalCommand","inputs":[{"name":"pid","type":"uint256","internalType":"uint256"},{"name":"cid","type":"uint256","internalType":"uint256"}],"outputs":[{"name":"","type":"tuple","internalType":"struct Schema.Command","components":[{"name":"id","type":"uint256","internalType":"uint256"},{"name":"actions","type":"tuple[]","internalType":"struct Schema.Action[]","components":[{"name":"func","type":"string","internalType":"string"},{"name":"abiParams","type":"bytes","internalType":"bytes"}]},{"name":"currentScore","type":"uint256","internalType":"uint256"}]}],"stateMutability":"view"},{"type":"function","name":"getProposalHeaders","inputs":[{"name":"id","type":"uint256","internalType":"uint256"}],"outputs":[{"name":"","type":"tuple[]","internalType":"struct Schema.Header[]","components":[{"name":"id","type":"uint256","internalType":"uint256"},{"name":"currentScore","type":"uint256","internalType":"uint256"},{"name":"metadataURI","type":"bytes32","internalType":"bytes32"},{"name":"tagIds","type":"uint256[]","internalType":"uint256[]"}]}],"stateMutability":"view"},{"type":"function","name":"getProposalsConfig","inputs":[],"outputs":[{"name":"","type":"tuple","internalType":"struct Schema.ProposalsConfig","components":[{"name":"expiryDuration","type":"uint256","internalType":"uint256"},{"name":"tallyInterval","type":"uint256","internalType":"uint256"},{"name":"repsNum","type":"uint256","internalType":"uint256"},{"name":"quorumScore","type":"uint256","internalType":"uint256"}]}],"stateMutability":"view"},{"type":"function","name":"getSubscriptionId","inputs":[],"outputs":[{"name":"","type":"uint64","internalType":"uint64"}],"stateMutability":"view"},{"type":"function","name":"getText","inputs":[{"name":"id","type":"uint256","internalType":"uint256"}],"outputs":[{"name":"","type":"tuple","internalType":"struct Schema.Text","components":[{"name":"id","type":"uint256","internalType":"uint256"},{"name":"metadataURIs","type":"bytes32[]","internalType":"bytes32[]"}]}],"stateMutability":"view"},{"type":"function","name":"getVRFConfig","inputs":[],"outputs":[{"name":"","type":"tuple","internalType":"struct Schema.VRFConfig","components":[{"name":"vrfCoordinator","type":"address","internalType":"address"},{"name":"keyHash","type":"bytes32","internalType":"bytes32"},{"name":"callbackGasLimit","type":"uint32","internalType":"uint32"},{"name":"requestConfirmations","type":"uint16","internalType":"uint16"},{"name":"numWords","type":"uint32","internalType":"uint32"},{"name":"LINKTOKEN","type":"address","internalType":"address"}]}],"stateMutability":"view"},{"type":"function","name":"getVRFRequest","inputs":[{"name":"id","type":"uint256","internalType":"uint256"}],"outputs":[{"name":"","type":"tuple","internalType":"struct Schema.Request","components":[{"name":"requestId","type":"uint256","internalType":"uint256"},{"name":"proposalId","type":"uint256","internalType":"uint256"}]}],"stateMutability":"view"},{"type":"function","name":"initialize","inputs":[{"name":"initialMembers","type":"address[]","internalType":"address[]"},{"name":"pConfig","type":"tuple","internalType":"struct Schema.ProposalsConfig","components":[{"name":"expiryDuration","type":"uint256","internalType":"uint256"},{"name":"tallyInterval","type":"uint256","internalType":"uint256"},{"name":"repsNum","type":"uint256","internalType":"uint256"},{"name":"quorumScore","type":"uint256","internalType":"uint256"}]}],"outputs":[],"stateMutability":"nonpayable"},{"type":"function","name":"memberJoin","inputs":[{"name":"_candidates","type":"tuple[]","internalType":"struct Schema.Member[]","components":[{"name":"id","type":"uint256","internalType":"uint256"},{"name":"addr","type":"address","internalType":"address"},{"name":"iconURI","type":"string","internalType":"string"},{"name":"iconVerifiedSignature","type":"bytes","internalType":"bytes"}]}],"outputs":[],"stateMutability":"nonpayable"},{"type":"function","name":"onboardImage","inputs":[{"name":"ipfsUrl","type":"string","internalType":"string"},{"name":"signature","type":"bytes","internalType":"bytes"}],"outputs":[],"stateMutability":"nonpayable"},{"type":"function","name":"overrideProposalsConfig","inputs":[{"name":"_proposalId","type":"uint256","internalType":"uint256"},{"name":"_config","type":"tuple","internalType":"struct Schema.ProposalsConfig","components":[{"name":"expiryDuration","type":"uint256","internalType":"uint256"},{"name":"tallyInterval","type":"uint256","internalType":"uint256"},{"name":"repsNum","type":"uint256","internalType":"uint256"},{"name":"quorumScore","type":"uint256","internalType":"uint256"}]}],"outputs":[],"stateMutability":"nonpayable"},{"type":"function","name":"propose","inputs":[{"name":"_p","type":"tuple","internalType":"struct Types.ProposalArg","components":[{"name":"header","type":"tuple","internalType":"struct Schema.Header","components":[{"name":"id","type":"uint256","internalType":"uint256"},{"name":"currentScore","type":"uint256","internalType":"uint256"},{"name":"metadataURI","type":"bytes32","internalType":"bytes32"},{"name":"tagIds","type":"uint256[]","internalType":"uint256[]"}]},{"name":"cmd","type":"tuple","internalType":"struct Schema.Command","components":[{"name":"id","type":"uint256","internalType":"uint256"},{"name":"actions","type":"tuple[]","internalType":"struct Schema.Action[]","components":[{"name":"func","type":"string","internalType":"string"},{"name":"abiParams","type":"bytes","internalType":"bytes"}]},{"name":"currentScore","type":"uint256","internalType":"uint256"}]},{"name":"proposalMeta","type":"tuple","internalType":"struct Schema.ProposalMeta","components":[{"name":"currentScore","type":"uint256","internalType":"uint256"},{"name":"headerRank","type":"uint256[]","internalType":"uint256[]"},{"name":"cmdRank","type":"uint256[]","internalType":"uint256[]"},{"name":"nextHeaderTallyFrom","type":"uint256","internalType":"uint256"},{"name":"nextCmdTallyFrom","type":"uint256","internalType":"uint256"},{"name":"reps","type":"address[]","internalType":"address[]"},{"name":"nextRepId","type":"uint256","internalType":"uint256"},{"name":"createdAt","type":"uint256","internalType":"uint256"}]}]}],"outputs":[{"name":"","type":"uint256","internalType":"uint256"}],"stateMutability":"nonpayable"},{"type":"function","name":"saveText","inputs":[{"name":"_proposalId","type":"uint256","internalType":"uint256"},{"name":"_text","type":"string","internalType":"string"}],"outputs":[],"stateMutability":"nonpayable"},{"type":"function","name":"setProposalsConfig","inputs":[{"name":"_config","type":"tuple","internalType":"struct Schema.ProposalsConfig","components":[{"name":"expiryDuration","type":"uint256","internalType":"uint256"},{"name":"tallyInterval","type":"uint256","internalType":"uint256"},{"name":"repsNum","type":"uint256","internalType":"uint256"},{"name":"quorumScore","type":"uint256","internalType":"uint256"}]}],"outputs":[],"stateMutability":"nonpayable"},{"type":"function","name":"tally","inputs":[{"name":"_proposalId","type":"uint256","internalType":"uint256"}],"outputs":[],"stateMutability":"nonpayable"},{"type":"function","name":"voteCmds","inputs":[{"name":"_proposalId","type":"uint256","internalType":"uint256"},{"name":"_cmdIds","type":"uint256[3]","internalType":"uint256[3]"}],"outputs":[],"stateMutability":"nonpayable"},{"type":"function","name":"voteHeaders","inputs":[{"name":"_proposalId","type":"uint256","internalType":"uint256"},{"name":"_headerIds","type":"uint256[3]","internalType":"uint256[3]"}],"outputs":[],"stateMutability":"nonpayable"}],"bytecode":{"object":"0x6080604052348015600e575f5ffd5b506119228061001c5f395ff3fe608060405234801561000f575f5ffd5b50600436106101a7575f3560e01c8063a28e6d56116100f7578063cb37be9e11610095578063e69b9edc1161006f578063e69b9edc146104c9578063e8109953146104e5578063ed8b6b3114610515578063fe0d94c114610531576101a7565b8063cb37be9e14610471578063dc1ec0e51461048f578063de3d9fb7146104ab576101a7565b8063bca2007b116100d1578063bca2007b146103d9578063c1e582ba146103f5578063c5b3644114610425578063c7f758a814610441576101a7565b8063a28e6d561461036f578063a4c5e9cb1461038b578063ab3545e5146103a9576101a7565b8063603d9eb7116101645780637f4ef9d41161013e5780637f4ef9d4146102d55780638124b78e146103055780639a5ea6a0146103215780639f46786e1461033f576101a7565b8063603d9eb71461026b5780636c996f8814610287578063787e0fe0146102b7576101a7565b80630bb2de3f146101ab57806325be10bd146101c75780632a2c16a0146101f75780632b7efac1146102155780633fc765ad146102335780634f4a95361461024f575b5f5ffd5b6101c560048036038101906101c0919061097f565b61054d565b005b6101e160048036038101906101dc9190610a4a565b610551565b6040516101ee9190610aa7565b60405180910390f35b6101ff61055e565b60405161020c9190610acf565b60405180910390f35b61021d610562565b60405161022a9190610acf565b60405180910390f35b61024d60048036038101906102489190610b34565b610566565b005b61026960048036038101906102649190610bcf565b61056a565b005b61028560048036038101906102809190610c4a565b61056f565b005b6102a1600480360381019061029c9190610ca4565b610573565b6040516102ae9190610eaa565b60405180910390f35b6102bf61057a565b6040516102cc9190610acf565b60405180910390f35b6102ef60048036038101906102ea9190610ca4565b61057e565b6040516102fc9190610fac565b60405180910390f35b61031f600480360381019061031a9190611026565b61058b565b005b61032961058e565b6040516103369190611113565b60405180910390f35b6103596004803603810190610354919061112c565b610599565b6040516103669190610acf565b60405180910390f35b610389600480360381019061038491906111c8565b61059f565b005b6103936105a3565b6040516103a09190611266565b60405180910390f35b6103c360048036038101906103be9190610ca4565b6105ae565b6040516103d09190611398565b60405180910390f35b6103f360048036038101906103ee91906113b8565b6105bb565b005b61040f600480360381019061040a9190610ca4565b6105be565b60405161041c9190611410565b60405180910390f35b61043f600480360381019061043a919061144a565b6105cb565b005b61045b60048036038101906104569190610ca4565b6105cf565b6040516104689190611638565b60405180910390f35b6104796105dc565b6040516104869190610acf565b60405180910390f35b6104a960048036038101906104a491906116ad565b6105e0565b005b6104b36105e5565b6040516104c0919061172c565b60405180910390f35b6104e360048036038101906104de919061144a565b6105e9565b005b6104ff60048036038101906104fa9190611745565b6105ed565b60405161050c91906118cc565b60405180910390f35b61052f600480360381019061052a9190610ca4565b6105fb565b005b61054b60048036038101906105469190610ca4565b6105fe565b005b5050565b610559610601565b919050565b5f90565b5f90565b5050565b505050565b5050565b6060919050565b5f90565b610586610613565b919050565b50565b61059661062c565b90565b5f919050565b5050565b6105ab610698565b90565b6105b66106bc565b919050565b50565b6105c66106f8565b919050565b5050565b6105d7610710565b919050565b5f90565b505050565b5f90565b5050565b6105f5610735565b92915050565b50565b50565b60405180602001604052805f81525090565b60405180604001604052805f8152602001606081525090565b6040518060c001604052805f73ffffffffffffffffffffffffffffffffffffffff1681526020015f81526020015f63ffffffff1681526020015f61ffff1681526020015f63ffffffff1681526020015f73ffffffffffffffffffffffffffffffffffffffff1681525090565b60405180608001604052805f81526020015f81526020015f81526020015f81525090565b60405180608001604052805f81526020015f73ffffffffffffffffffffffffffffffffffffffff16815260200160608152602001606081525090565b60405180604001604052805f81526020015f81525090565b6040518060600160405280610723610754565b81526020015f81526020015f81525090565b60405180606001604052805f8152602001606081526020015f81525090565b6040518061010001604052805f815260200160608152602001606081526020015f81526020015f8152602001606081526020015f81526020015f81525090565b5f604051905090565b5f5ffd5b5f5ffd5b5f5ffd5b5f5ffd5b5f601f19601f8301169050919050565b7f4e487b71000000000000000000000000000000000000000000000000000000005f52604160045260245ffd5b6107f3826107ad565b810181811067ffffffffffffffff82111715610812576108116107bd565b5b80604052505050565b5f610824610794565b905061083082826107ea565b919050565b5f67ffffffffffffffff82111561084f5761084e6107bd565b5b610858826107ad565b9050602081019050919050565b828183375f83830152505050565b5f61088561088084610835565b61081b565b9050828152602081018484840111156108a1576108a06107a9565b5b6108ac848285610865565b509392505050565b5f82601f8301126108c8576108c76107a5565b5b81356108d8848260208601610873565b91505092915050565b5f67ffffffffffffffff8211156108fb576108fa6107bd565b5b610904826107ad565b9050602081019050919050565b5f61092361091e846108e1565b61081b565b90508281526020810184848401111561093f5761093e6107a9565b5b61094a848285610865565b509392505050565b5f82601f830112610966576109656107a5565b5b8135610976848260208601610911565b91505092915050565b5f5f604083850312156109955761099461079d565b5b5f83013567ffffffffffffffff8111156109b2576109b16107a1565b5b6109be858286016108b4565b925050602083013567ffffffffffffffff8111156109df576109de6107a1565b5b6109eb85828601610952565b9150509250929050565b5f7fffffffff0000000000000000000000000000000000000000000000000000000082169050919050565b610a29816109f5565b8114610a33575f5ffd5b50565b5f81359050610a4481610a20565b92915050565b5f60208284031215610a5f57610a5e61079d565b5b5f610a6c84828501610a36565b91505092915050565b5f819050919050565b610a8781610a75565b82525050565b602082015f820151610aa15f850182610a7e565b50505050565b5f602082019050610aba5f830184610a8d565b92915050565b610ac981610a75565b82525050565b5f602082019050610ae25f830184610ac0565b92915050565b610af181610a75565b8114610afb575f5ffd5b50565b5f81359050610b0c81610ae8565b92915050565b5f5ffd5b5f60808284031215610b2b57610b2a610b12565b5b81905092915050565b5f5f60a08385031215610b4a57610b4961079d565b5b5f610b5785828601610afe565b9250506020610b6885828601610b16565b9150509250929050565b5f5ffd5b5f5ffd5b5f5f83601f840112610b8f57610b8e6107a5565b5b8235905067ffffffffffffffff811115610bac57610bab610b72565b5b602083019150836001820283011115610bc857610bc7610b76565b5b9250929050565b5f5f5f60408486031215610be657610be561079d565b5b5f610bf386828701610afe565b935050602084013567ffffffffffffffff811115610c1457610c136107a1565b5b610c2086828701610b7a565b92509250509250925092565b5f60608284031215610c4157610c40610b12565b5b81905092915050565b5f5f60408385031215610c6057610c5f61079d565b5b5f610c6d85828601610afe565b925050602083013567ffffffffffffffff811115610c8e57610c8d6107a1565b5b610c9a85828601610c2c565b9150509250929050565b5f60208284031215610cb957610cb861079d565b5b5f610cc684828501610afe565b91505092915050565b5f81519050919050565b5f82825260208201905092915050565b5f819050602082019050919050565b5f819050919050565b610d0a81610cf8565b82525050565b5f81519050919050565b5f82825260208201905092915050565b5f819050602082019050919050565b5f610d448383610a7e565b60208301905092915050565b5f602082019050919050565b5f610d6682610d10565b610d708185610d1a565b9350610d7b83610d2a565b805f5b83811015610dab578151610d928882610d39565b9750610d9d83610d50565b925050600181019050610d7e565b5085935050505092915050565b5f608083015f830151610dcd5f860182610a7e565b506020830151610de06020860182610a7e565b506040830151610df36040860182610d01565b5060608301518482036060860152610e0b8282610d5c565b9150508091505092915050565b5f610e238383610db8565b905092915050565b5f602082019050919050565b5f610e4182610ccf565b610e4b8185610cd9565b935083602082028501610e5d85610ce9565b805f5b85811015610e985784840389528151610e798582610e18565b9450610e8483610e2b565b925060208a01995050600181019050610e60565b50829750879550505050505092915050565b5f6020820190508181035f830152610ec28184610e37565b905092915050565b5f81519050919050565b5f82825260208201905092915050565b5f819050602082019050919050565b5f610efe8383610d01565b60208301905092915050565b5f602082019050919050565b5f610f2082610eca565b610f2a8185610ed4565b9350610f3583610ee4565b805f5b83811015610f65578151610f4c8882610ef3565b9750610f5783610f0a565b925050600181019050610f38565b5085935050505092915050565b5f604083015f830151610f875f860182610a7e565b5060208301518482036020860152610f9f8282610f16565b9150508091505092915050565b5f6020820190508181035f830152610fc48184610f72565b905092915050565b5f73ffffffffffffffffffffffffffffffffffffffff82169050919050565b5f610ff582610fcc565b9050919050565b61100581610feb565b811461100f575f5ffd5b50565b5f8135905061102081610ffc565b92915050565b5f6020828403121561103b5761103a61079d565b5b5f61104884828501611012565b91505092915050565b61105a81610feb565b82525050565b5f63ffffffff82169050919050565b61107881611060565b82525050565b5f61ffff82169050919050565b6110948161107e565b82525050565b60c082015f8201516110ae5f850182611051565b5060208201516110c16020850182610d01565b5060408201516110d4604085018261106f565b5060608201516110e7606085018261108b565b5060808201516110fa608085018261106f565b5060a082015161110d60a0850182611051565b50505050565b5f60c0820190506111265f83018461109a565b92915050565b5f602082840312156111415761114061079d565b5b5f82013567ffffffffffffffff81111561115e5761115d6107a1565b5b61116a84828501610c2c565b91505092915050565b5f5f83601f840112611188576111876107a5565b5b8235905067ffffffffffffffff8111156111a5576111a4610b72565b5b6020830191508360208202830111156111c1576111c0610b76565b5b9250929050565b5f5f602083850312156111de576111dd61079d565b5b5f83013567ffffffffffffffff8111156111fb576111fa6107a1565b5b61120785828601611173565b92509250509250929050565b608082015f8201516112275f850182610a7e565b50602082015161123a6020850182610a7e565b50604082015161124d6040850182610a7e565b5060608201516112606060850182610a7e565b50505050565b5f6080820190506112795f830184611213565b92915050565b5f81519050919050565b5f82825260208201905092915050565b8281835e5f83830152505050565b5f6112b18261127f565b6112bb8185611289565b93506112cb818560208601611299565b6112d4816107ad565b840191505092915050565b5f81519050919050565b5f82825260208201905092915050565b5f611303826112df565b61130d81856112e9565b935061131d818560208601611299565b611326816107ad565b840191505092915050565b5f608083015f8301516113465f860182610a7e565b5060208301516113596020860182611051565b506040830151848203604086015261137182826112a7565b9150506060830151848203606086015261138b82826112f9565b9150508091505092915050565b5f6020820190508181035f8301526113b08184611331565b905092915050565b5f608082840312156113cd576113cc61079d565b5b5f6113da84828501610b16565b91505092915050565b604082015f8201516113f75f850182610a7e565b50602082015161140a6020850182610a7e565b50505050565b5f6040820190506114235f8301846113e3565b92915050565b5f8190508260206003028201111561144457611443610b76565b5b92915050565b5f5f608083850312156114605761145f61079d565b5b5f61146d85828601610afe565b925050602061147e85828601611429565b9150509250929050565b5f81519050919050565b5f82825260208201905092915050565b5f819050602082019050919050565b5f6114bc8383611051565b60208301905092915050565b5f602082019050919050565b5f6114de82611488565b6114e88185611492565b93506114f3836114a2565b805f5b8381101561152357815161150a88826114b1565b9750611515836114c8565b9250506001810190506114f6565b5085935050505092915050565b5f61010083015f8301516115465f860182610a7e565b506020830151848203602086015261155e8282610d5c565b915050604083015184820360408601526115788282610d5c565b915050606083015161158d6060860182610a7e565b5060808301516115a06080860182610a7e565b5060a083015184820360a08601526115b882826114d4565b91505060c08301516115cd60c0860182610a7e565b5060e08301516115e060e0860182610a7e565b508091505092915050565b5f606083015f8301518482035f8601526116058282611530565b915050602083015161161a6020860182610a7e565b50604083015161162d6040860182610a7e565b508091505092915050565b5f6020820190508181035f83015261165081846115eb565b905092915050565b5f5f83601f84011261166d5761166c6107a5565b5b8235905067ffffffffffffffff81111561168a57611689610b72565b5b6020830191508360208202830111156116a6576116a5610b76565b5b9250929050565b5f5f5f60a084860312156116c4576116c361079d565b5b5f84013567ffffffffffffffff8111156116e1576116e06107a1565b5b6116ed86828701611658565b9350935050602061170086828701610b16565b9150509250925092565b5f67ffffffffffffffff82169050919050565b6117268161170a565b82525050565b5f60208201905061173f5f83018461171d565b92915050565b5f5f6040838503121561175b5761175a61079d565b5b5f61176885828601610afe565b925050602061177985828601610afe565b9150509250929050565b5f81519050919050565b5f82825260208201905092915050565b5f819050602082019050919050565b5f604083015f8301518482035f8601526117c682826112a7565b915050602083015184820360208601526117e082826112f9565b9150508091505092915050565b5f6117f883836117ac565b905092915050565b5f602082019050919050565b5f61181682611783565b611820818561178d565b9350836020820285016118328561179d565b805f5b8581101561186d578484038952815161184e85826117ed565b945061185983611800565b925060208a01995050600181019050611835565b50829750879550505050505092915050565b5f606083015f8301516118945f860182610a7e565b50602083015184820360208601526118ac828261180c565b91505060408301516118c16040860182610a7e565b508091505092915050565b5f6020820190508181035f8301526118e4818461187f565b90509291505056fea264697066735822122098434207edb030b2ff8572817ee4e14212d14778e39dacf608c345da4f56481f64736f6c634300081e0033","linkReferences":{}},"methodIdentifiers":{"clone(address)":"8124b78e","execute(uint256)":"fe0d94c1","fork(uint256,((uint256,uint256,bytes32,uint256[]),(uint256,(string,bytes)[],uint256),(uint256,uint256[],uint256[],uint256,uint256,address[],uint256,uint256)))":"603d9eb7","getConfigOverride(bytes4)":"25be10bd","getMember(uint256)":"ab3545e5","getNextMemberId()":"cb37be9e","getNextProposalId()":"787e0fe0","getNextTextId()":"2b7efac1","getNextVRFId()":"2a2c16a0","getProposal(uint256)":"c7f758a8","getProposalCommand(uint256,uint256)":"e8109953","getProposalHeaders(uint256)":"6c996f88","getProposalsConfig()":"a4c5e9cb","getSubscriptionId()":"de3d9fb7","getText(uint256)":"7f4ef9d4","getVRFConfig()":"9a5ea6a0","getVRFRequest(uint256)":"c1e582ba","initialize(address[],(uint256,uint256,uint256,uint256))":"dc1ec0e5","memberJoin((uint256,address,string,bytes)[])":"a28e6d56","onboardImage(string,bytes)":"0bb2de3f","overrideProposalsConfig(uint256,(uint256,uint256,uint256,uint256))":"3fc765ad","propose(((uint256,uint256,bytes32,uint256[]),(uint256,(string,bytes)[],uint256),(uint256,uint256[],uint256[],uint256,uint256,address[],uint256,uint256)))":"9f46786e","saveText(uint256,string)":"4f4a9536","setProposalsConfig((uint256,uint256,uint256,uint256))":"bca2007b","tally(uint256)":"ed8b6b31","voteCmds(uint256,uint256[3])":"e69b9edc","voteHeaders(uint256,uint256[3])":"c5b36441"},"id":115}